:0300000002059D59
:0C059D00787FE4F6D8FD7581190205E4B2
:050808000000000000EB
:0807EF000614C9E3CACFB6C825
:0807F8008F993099FDC299228E
:10072B00AE07EE75F00A8475F00A84E5F02430FF0D
:10073B001207F8EE75F00A84E5F02430FF0207F893
:100787001207B612074B7F881207D77F431207E37A
:0807970012079F12044F80F8C5
:04044F008E088F097B
:10045300780B7C007D007BFF7A0879087E007F059E
:10046300120390C3E50864809480501D7F801207B7
:10047300D7750A2D7F2D1207E3E5091509700215BB
:10048300086309FF6308FF800D7F801207D77F2B66
:100493001207E3750A2BAC08AD09EC1202068F13A1
:1004A3008E128D118C10E4FFFE7DC87C40AB13AA25
:1004B30012A911A8101200FBE4FBFAF9783F12000D
:1004C3000A12023F8E088F09AE08AF097C277D1000
:1004D3001203B68F0BAE08AF097C277D101203B64B
:1004E3007E037FE8CFCDCFCECCCE1203B68F0CAE3A
:1004F30008AF097C037DE81203B67E007F64CFCD8D
:10050300CFCECCCE1203B68F0DAE08AF097C007DE3
:10051300641203B67E007F0ACFCDCFCECCCE1203BA
:10052300B68F0EAE08AF097C007D0A1203B68D0F9D
:100533007F821207D7E50B2430FF1207E37F831274
:1005430007D7E50C2430FF1207E37F841207D7E5B2
:100553000D2430FF1207E37F851207D77F2E120782
:10056300E37F861207D7E50E2430FF1207E37F8768
:100573001207D7E50F2430FF1207E3E4FEEEC3941E
:100583000574809480500C740B2EF8E6FF1207F864
:0A0593000E80EA7FD07E07020652B8
:1007B600759850758920758780758DFA758BFAD274
:0207C6008E2281
:10062900C2A58B807F017E00120652D2A77F057E6C
:1006390000120652C2A7EBC454F0F5807F017E0078
:09064900120652D2A77F057E00C3
:10065200D3EF9400EE940040257DC7EDD39400744F
:1006620080948040127C01ECD3940074809480408A
:0E067200031C80F31D80E4EF1F70D51E80D2A4
:010680002257
:0C07D700AB07C2A7C2A6120629C2A722C7
:0C07E300AB07C2A7D2A6120629C2A722AB
:10074B007F321207D77F281207D77F0C1207D77F6C
:0E075B00061207D77F011207D77F800207D74B
:10076900D3EF9400EE940040147D6E7C00ED1D7073
:0D077900011CED4C70F7EF1F70E61E80E3D1
:010786002250
:10070100C2B77B46AF031BEF70FAD2B7FB30B71706
:100711000BEBD394057480948040037F00227F010A
:090721007E0012076980E67F01E9
:01072A0022AC
:0C0681001207017F017E001207697FCC88
:10068D00E4FBFAC2B7050AE50A70020509EF1392F9
:10069D00B7750900750A06E50A150AAC0970021549
:1006AD00094C70F3D2B7EFC313FF0BBB00010AEB7C
:0506BD0064084A70CE44
:0106C2002215
:1006C3007D087C00C2B70FBF0000D2B70FBF000088
:1006D3000FBF0000A2B7E433C43333335480FBE9C4
:1006E300C3134BF97E007F04EF1FAA0670011E4A55
:0D06F30070F6ED1D70011CED4C70C9AF01DB
:0107000022D6
:0F07C8001206817F4412068D7F647E000207694E
:080800001206817FBE02068D85
:10079F00E4FFFE1207C81208001206C38F081206E4
:0607AF00C3EFFEE508FFA8
:0107B5002221
:100003000202ABE86480F8E933E83360110460F07E
:10001300ED33EC337009E8FCE9FDEAFEEBFF220463
:1000230060DED3EB9FEA9EE99DE8C2E78CF0C2F75E
:1000330095F0400CE8CCF8E9CDF9EACEFAEBCFFB2A
:1000430012027685D0F05804700320D5B3E804700B
:10005300075002B2D50202B592D5EC0460F7E4CCA6
:10006300C0E0C398F8603B94186008400DD0E0FBF3
:1000730002028DE4FBFAC9FC8028E830E406E4C9F7
:10008300FBE4CAFCE830E305E4C9CACBFCE8540747
:100093006010F8C3E913F9EA13FAEB13FBEC13FC52
:1000A300D8F130F52FC3E49CFCEF9BFFEE9AFEEDF5
:1000B30099FDD0E0FBEF4E4D4C701222DB030202A0
:1000C300B2EC2CFCEF33FFEE33FEED33FDED30E706
:1000D300EB02028DEF2BFFEE3AFEED39FDD0E0FB94
:1000E30050130BBB00030202B5ED13FDEE13FEEF3D
:0800F30013FFEC13FC02028D67
:1000FB00EC4D6011E8497017ED33EC3304600DE4FF
:10010B00FCFFFEFD22E933E8330470F80202AB1268
:10011B00027658046009E4CC248150062850090269
:10012B0002B52840030202B2C0E0EB4A7044B9802A
:10013B0006D0E0FB0202A1EF4E701CBD8008EBFF66
:10014B00EAFEE9FD80EBE98DF0A4FEE5F00201E4A7
:10015B00E9CDF9EAFEEBFFEF89F0A4FCE5F0CE89DF
:10016B00F0A42EFFE435F0CD89F0A42DFEE435F09C
:10017B008067EF4E7005BD80D780C3EF8BF0A4ACCA
:10018B00F0EE8BF0A42CFCE435F0F8EF8AF0A42C05
:10019B00E5F038FCE433CB8DF0A42CFCE5F03BF818
:1001AB00EE8AF0A42CFCE5F038F8E433CF89F0A408
:1001BB002CFCE5F038CF3400CE89F0A42FFFE5F00E
:1001CB003EFEE433C98DF0A42EFEE5F039CD8AF066
:1001DB00A42FFFE5F03EFEE43DFD33D0E0FB5007DE
:1001EB000BBB000F0202B5EC2CFCEF33FFEE33FE22
:0601FB00ED33FD02028D50
:1002010075F020800E75F010800575F0087D007E78
:10021100007F003392D530D5031203ECEC3340104C
:10022100EF33FFEE33FEED33FDEC33FCD5F0ED2281
:0E023100E5F0247EA2D513CC92E7CDCEFF22BD
:10023F00EDD2E7CD33EC3392D524814006E4FFFEB7
:10024F00FDFC22FCE4CFCECDCC24E0501174FF8016
:10025F00EDC3CC13CCCD13CDCE13CECF13CF0470B3
:07026F00F030D5DE0203ECC4
:10027600E9D2E7C933E833F892D5EDD2E7CD33ECCE
:0702860033FC5002B2D52247
:10028D00EC30E7100FBF000C0EBE00080DBD0004D2
:10029D000BEB6014A2D5EB13FCED92E7FD2274FF7E
:1002AD00FCFDFEFF22E480F8A2D574FF13FC7D80D7
:0302BD00E480EFEB
:1005A900020787E493A3F8E493A34003F68001F2DA
:1005B90008DFF48029E493A3F85407240CC8C33353
:1005C900C4540F4420C8834004F456800146F6DF22
:1005D900E4800B01020408102040809007EFE47EBC
:1005E900019360BCA3FF543F30E509541FFEE49317
:1005F900A360010ECF54C025E060A840B8E493A3DE
:10060900FAE493A3F8E493A3C8C582C8CAC583CA08
:10061900F0A3C8C582C8CAC583CADFE9DEE780BEC0
:0107F7000001
:1002C000E709F608DFFA8046E709F208DFFA803E20
:1002D00088828C83E709F0A3DFFA8032E309F6080D
:1002E000DFFA8078E309F208DFFA807088828C8375
:1002F000E309F0A3DFFA806489828A83E0A3F60829
:10030000DFFA805889828A83E0A3F208DFFA804C02
:1003100080D280FA80C680D4806980F280338010D9
:1003200080A680EA809A80A880DA80E280CA803342
:1003300089828A83ECFAE493A3C8C582C8CCC583BA
:10034000CCF0A3C8C582C8CCC583CCDFE9DEE7808A
:100350000D89828A83E493A3F608DFF9ECFAA9F009
:10036000EDFB2289828A83ECFAE0A3C8C582C8CC5F
:10037000C583CCF0A3C8C582C8CCC583CCDFEADE78
:10038000E880DB89828A83E493A3F208DFF980CCDA
:1003900088F0EF60010E4E60C388F0ED2402B404D3
:1003A0000050B9F582EB2402B4040050AF2323457A
:0603B0008223900310738C
:1003B600C2D5EC30E709B2D5E4C39DFDE49CFCEE62
:1003C60030E715B2D5E4C39FFFE49EFE1203FAC3DD
:1003D600E49DFDE49CFC80031203FA30D507C3E4D8
:0603E6009FFFE49EFE22D1
:0E03EC00C3E49FFFE49EFEE49DFDE49CFC2222
:1003FA00BC000BBE0029EF8DF084FFADF022E4CCE7
:10040A00F875F008EF2FFFEE33FEEC33FCEE9DECAF
:10041A00984005FCEE9DFE0FD5F0E9E4CEFD22EDF5
:10042A00F8F5F0EE8420D21CFEADF075F008EF2F3F
:10043A00FFED33FD4007985006D5F0F222C398FD30
:05044A000FD5F0EA22CD
:00000001FF
